{
  "contractName": "Color",
  "abi": [
    {
      "inputs": [],
      "stateMutability": "nonpayable",
      "type": "constructor"
    },
    {
      "anonymous": false,
      "inputs": [
        {
          "indexed": true,
          "internalType": "address",
          "name": "owner",
          "type": "address"
        },
        {
          "indexed": true,
          "internalType": "address",
          "name": "approved",
          "type": "address"
        },
        {
          "indexed": true,
          "internalType": "uint256",
          "name": "tokenId",
          "type": "uint256"
        }
      ],
      "name": "Approval",
      "type": "event"
    },
    {
      "anonymous": false,
      "inputs": [
        {
          "indexed": true,
          "internalType": "address",
          "name": "owner",
          "type": "address"
        },
        {
          "indexed": true,
          "internalType": "address",
          "name": "operator",
          "type": "address"
        },
        {
          "indexed": false,
          "internalType": "bool",
          "name": "approved",
          "type": "bool"
        }
      ],
      "name": "ApprovalForAll",
      "type": "event"
    },
    {
      "anonymous": false,
      "inputs": [
        {
          "indexed": true,
          "internalType": "address",
          "name": "from",
          "type": "address"
        },
        {
          "indexed": true,
          "internalType": "address",
          "name": "to",
          "type": "address"
        },
        {
          "indexed": true,
          "internalType": "uint256",
          "name": "tokenId",
          "type": "uint256"
        }
      ],
      "name": "Transfer",
      "type": "event"
    },
    {
      "anonymous": false,
      "inputs": [
        {
          "indexed": false,
          "internalType": "string",
          "name": "_color",
          "type": "string"
        }
      ],
      "name": "newColorMinted",
      "type": "event"
    },
    {
      "inputs": [
        {
          "internalType": "address",
          "name": "to",
          "type": "address"
        },
        {
          "internalType": "uint256",
          "name": "tokenId",
          "type": "uint256"
        }
      ],
      "name": "approve",
      "outputs": [],
      "stateMutability": "nonpayable",
      "type": "function"
    },
    {
      "inputs": [
        {
          "internalType": "address",
          "name": "owner",
          "type": "address"
        }
      ],
      "name": "balanceOf",
      "outputs": [
        {
          "internalType": "uint256",
          "name": "",
          "type": "uint256"
        }
      ],
      "stateMutability": "view",
      "type": "function",
      "constant": true
    },
    {
      "inputs": [],
      "name": "cap",
      "outputs": [
        {
          "internalType": "uint256",
          "name": "",
          "type": "uint256"
        }
      ],
      "stateMutability": "view",
      "type": "function",
      "constant": true
    },
    {
      "inputs": [
        {
          "internalType": "string",
          "name": "",
          "type": "string"
        }
      ],
      "name": "colorExists",
      "outputs": [
        {
          "internalType": "bool",
          "name": "",
          "type": "bool"
        }
      ],
      "stateMutability": "view",
      "type": "function",
      "constant": true
    },
    {
      "inputs": [
        {
          "internalType": "uint256",
          "name": "",
          "type": "uint256"
        }
      ],
      "name": "colors",
      "outputs": [
        {
          "internalType": "string",
          "name": "",
          "type": "string"
        }
      ],
      "stateMutability": "view",
      "type": "function",
      "constant": true
    },
    {
      "inputs": [
        {
          "internalType": "uint256",
          "name": "tokenId",
          "type": "uint256"
        }
      ],
      "name": "getApproved",
      "outputs": [
        {
          "internalType": "address",
          "name": "",
          "type": "address"
        }
      ],
      "stateMutability": "view",
      "type": "function",
      "constant": true
    },
    {
      "inputs": [
        {
          "internalType": "address",
          "name": "owner",
          "type": "address"
        },
        {
          "internalType": "address",
          "name": "operator",
          "type": "address"
        }
      ],
      "name": "isApprovedForAll",
      "outputs": [
        {
          "internalType": "bool",
          "name": "",
          "type": "bool"
        }
      ],
      "stateMutability": "view",
      "type": "function",
      "constant": true
    },
    {
      "inputs": [],
      "name": "mintedCount",
      "outputs": [
        {
          "internalType": "uint256",
          "name": "",
          "type": "uint256"
        }
      ],
      "stateMutability": "view",
      "type": "function",
      "constant": true
    },
    {
      "inputs": [],
      "name": "name",
      "outputs": [
        {
          "internalType": "string",
          "name": "",
          "type": "string"
        }
      ],
      "stateMutability": "view",
      "type": "function",
      "constant": true
    },
    {
      "inputs": [
        {
          "internalType": "uint256",
          "name": "tokenId",
          "type": "uint256"
        }
      ],
      "name": "ownerOf",
      "outputs": [
        {
          "internalType": "address",
          "name": "",
          "type": "address"
        }
      ],
      "stateMutability": "view",
      "type": "function",
      "constant": true
    },
    {
      "inputs": [
        {
          "internalType": "address",
          "name": "from",
          "type": "address"
        },
        {
          "internalType": "address",
          "name": "to",
          "type": "address"
        },
        {
          "internalType": "uint256",
          "name": "tokenId",
          "type": "uint256"
        }
      ],
      "name": "safeTransferFrom",
      "outputs": [],
      "stateMutability": "nonpayable",
      "type": "function"
    },
    {
      "inputs": [
        {
          "internalType": "address",
          "name": "from",
          "type": "address"
        },
        {
          "internalType": "address",
          "name": "to",
          "type": "address"
        },
        {
          "internalType": "uint256",
          "name": "tokenId",
          "type": "uint256"
        },
        {
          "internalType": "bytes",
          "name": "_data",
          "type": "bytes"
        }
      ],
      "name": "safeTransferFrom",
      "outputs": [],
      "stateMutability": "nonpayable",
      "type": "function"
    },
    {
      "inputs": [
        {
          "internalType": "address",
          "name": "operator",
          "type": "address"
        },
        {
          "internalType": "bool",
          "name": "approved",
          "type": "bool"
        }
      ],
      "name": "setApprovalForAll",
      "outputs": [],
      "stateMutability": "nonpayable",
      "type": "function"
    },
    {
      "inputs": [
        {
          "internalType": "bytes4",
          "name": "interfaceId",
          "type": "bytes4"
        }
      ],
      "name": "supportsInterface",
      "outputs": [
        {
          "internalType": "bool",
          "name": "",
          "type": "bool"
        }
      ],
      "stateMutability": "view",
      "type": "function",
      "constant": true
    },
    {
      "inputs": [],
      "name": "symbol",
      "outputs": [
        {
          "internalType": "string",
          "name": "",
          "type": "string"
        }
      ],
      "stateMutability": "view",
      "type": "function",
      "constant": true
    },
    {
      "inputs": [
        {
          "internalType": "uint256",
          "name": "tokenId",
          "type": "uint256"
        }
      ],
      "name": "tokenURI",
      "outputs": [
        {
          "internalType": "string",
          "name": "",
          "type": "string"
        }
      ],
      "stateMutability": "view",
      "type": "function",
      "constant": true
    },
    {
      "inputs": [
        {
          "internalType": "address",
          "name": "from",
          "type": "address"
        },
        {
          "internalType": "address",
          "name": "to",
          "type": "address"
        },
        {
          "internalType": "uint256",
          "name": "tokenId",
          "type": "uint256"
        }
      ],
      "name": "transferFrom",
      "outputs": [],
      "stateMutability": "nonpayable",
      "type": "function"
    },
    {
      "inputs": [
        {
          "internalType": "string",
          "name": "_color",
          "type": "string"
        }
      ],
      "name": "mint",
      "outputs": [],
      "stateMutability": "payable",
      "type": "function",
      "payable": true
    }
  ],
  "bytecode": "0x60806040526103e76006553480156200001757600080fd5b506040518060400160405280600581526020017f436f6c6f720000000000000000000000000000000000000000000000000000008152506040518060400160405280600581526020017f434f4c4f5200000000000000000000000000000000000000000000000000000081525081600090805190602001906200009c929190620000be565b508060019080519060200190620000b5929190620000be565b505050620001d3565b828054620000cc906200016e565b90600052602060002090601f016020900481019282620000f057600085556200013c565b82601f106200010b57805160ff19168380011785556200013c565b828001600101855582156200013c579182015b828111156200013b5782518255916020019190600101906200011e565b5b5090506200014b91906200014f565b5090565b5b808211156200016a57600081600090555060010162000150565b5090565b600060028204905060018216806200018757607f821691505b602082108114156200019e576200019d620001a4565b5b50919050565b7f4e487b7100000000000000000000000000000000000000000000000000000000600052602260045260246000fd5b612e5d80620001e36000396000f3fe6080604052600436106101095760003560e01c80638d44807c11610095578063bd11f69d11610064578063bd11f69d1461038d578063c87b56dd146103ca578063cf721b1514610407578063d85d3d2714610432578063e985e9c51461044e57610109565b80638d44807c146102d357806395d89b4114610310578063a22cb4651461033b578063b88d4fde1461036457610109565b806323b872dd116100dc57806323b872dd146101dc578063355274ea1461020557806342842e0e146102305780636352211e1461025957806370a082311461029657610109565b806301ffc9a71461010e57806306fdde031461014b578063081812fc14610176578063095ea7b3146101b3575b600080fd5b34801561011a57600080fd5b5061013560048036038101906101309190611e3b565b61048b565b60405161014291906122d0565b60405180910390f35b34801561015757600080fd5b5061016061056d565b60405161016d91906122eb565b60405180910390f35b34801561018257600080fd5b5061019d60048036038101906101989190611ede565b6105ff565b6040516101aa9190612269565b60405180910390f35b3480156101bf57600080fd5b506101da60048036038101906101d59190611dfb565b610684565b005b3480156101e857600080fd5b5061020360048036038101906101fe9190611ce5565b61079c565b005b34801561021157600080fd5b5061021a6107fc565b604051610227919061252d565b60405180910390f35b34801561023c57600080fd5b5061025760048036038101906102529190611ce5565b610802565b005b34801561026557600080fd5b50610280600480360381019061027b9190611ede565b610822565b60405161028d9190612269565b60405180910390f35b3480156102a257600080fd5b506102bd60048036038101906102b89190611c78565b6108d4565b6040516102ca919061252d565b60405180910390f35b3480156102df57600080fd5b506102fa60048036038101906102f59190611e95565b61098c565b60405161030791906122d0565b60405180910390f35b34801561031c57600080fd5b506103256109c2565b60405161033291906122eb565b60405180910390f35b34801561034757600080fd5b50610362600480360381019061035d9190611dbb565b610a54565b005b34801561037057600080fd5b5061038b60048036038101906103869190611d38565b610bd5565b005b34801561039957600080fd5b506103b460048036038101906103af9190611ede565b610c37565b6040516103c191906122eb565b60405180910390f35b3480156103d657600080fd5b506103f160048036038101906103ec9190611ede565b610ce3565b6040516103fe91906122eb565b60405180910390f35b34801561041357600080fd5b5061041c610d8a565b604051610429919061252d565b60405180910390f35b61044c60048036038101906104479190611e95565b610d90565b005b34801561045a57600080fd5b5061047560048036038101906104709190611ca5565b610f5d565b60405161048291906122d0565b60405180910390f35b60007f80ac58cd000000000000000000000000000000000000000000000000000000007bffffffffffffffffffffffffffffffffffffffffffffffffffffffff1916827bffffffffffffffffffffffffffffffffffffffffffffffffffffffff1916148061055657507f5b5e139f000000000000000000000000000000000000000000000000000000007bffffffffffffffffffffffffffffffffffffffffffffffffffffffff1916827bffffffffffffffffffffffffffffffffffffffffffffffffffffffff1916145b80610566575061056582610ff1565b5b9050919050565b60606000805461057c90612783565b80601f01602080910402602001604051908101604052809291908181526020018280546105a890612783565b80156105f55780601f106105ca576101008083540402835291602001916105f5565b820191906000526020600020905b8154815290600101906020018083116105d857829003601f168201915b5050505050905090565b600061060a8261105b565b610649576040517f08c379a00000000000000000000000000000000000000000000000000000000081526004016106409061244d565b60405180910390fd5b6004600083815260200190815260200160002060009054906101000a900473ffffffffffffffffffffffffffffffffffffffff169050919050565b600061068f82610822565b90508073ffffffffffffffffffffffffffffffffffffffff168373ffffffffffffffffffffffffffffffffffffffff161415610700576040517f08c379a00000000000000000000000000000000000000000000000000000000081526004016106f7906124cd565b60405180910390fd5b8073ffffffffffffffffffffffffffffffffffffffff1661071f6110c7565b73ffffffffffffffffffffffffffffffffffffffff16148061074e575061074d816107486110c7565b610f5d565b5b61078d576040517f08c379a0000000000000000000000000000000000000000000000000000000008152600401610784906123cd565b60405180910390fd5b61079783836110cf565b505050565b6107ad6107a76110c7565b82611188565b6107ec576040517f08c379a00000000000000000000000000000000000000000000000000000000081526004016107e39061250d565b60405180910390fd5b6107f7838383611266565b505050565b60065481565b61081d83838360405180602001604052806000815250610bd5565b505050565b6000806002600084815260200190815260200160002060009054906101000a900473ffffffffffffffffffffffffffffffffffffffff169050600073ffffffffffffffffffffffffffffffffffffffff168173ffffffffffffffffffffffffffffffffffffffff1614156108cb576040517f08c379a00000000000000000000000000000000000000000000000000000000081526004016108c29061240d565b60405180910390fd5b80915050919050565b60008073ffffffffffffffffffffffffffffffffffffffff168273ffffffffffffffffffffffffffffffffffffffff161415610945576040517f08c379a000000000000000000000000000000000000000000000000000000000815260040161093c906123ed565b60405180910390fd5b600360008373ffffffffffffffffffffffffffffffffffffffff1673ffffffffffffffffffffffffffffffffffffffff168152602001908152602001600020549050919050565b6009818051602081018201805184825260208301602085012081835280955050505050506000915054906101000a900460ff1681565b6060600180546109d190612783565b80601f01602080910402602001604051908101604052809291908181526020018280546109fd90612783565b8015610a4a5780601f10610a1f57610100808354040283529160200191610a4a565b820191906000526020600020905b815481529060010190602001808311610a2d57829003601f168201915b5050505050905090565b610a5c6110c7565b73ffffffffffffffffffffffffffffffffffffffff168273ffffffffffffffffffffffffffffffffffffffff161415610aca576040517f08c379a0000000000000000000000000000000000000000000000000000000008152600401610ac19061236d565b60405180910390fd5b8060056000610ad76110c7565b73ffffffffffffffffffffffffffffffffffffffff1673ffffffffffffffffffffffffffffffffffffffff16815260200190815260200160002060008473ffffffffffffffffffffffffffffffffffffffff1673ffffffffffffffffffffffffffffffffffffffff16815260200190815260200160002060006101000a81548160ff0219169083151502179055508173ffffffffffffffffffffffffffffffffffffffff16610b846110c7565b73ffffffffffffffffffffffffffffffffffffffff167f17307eab39ab6107e8899845ad3d59bd9653f200f220920489ca2b5937696c3183604051610bc991906122d0565b60405180910390a35050565b610be6610be06110c7565b83611188565b610c25576040517f08c379a0000000000000000000000000000000000000000000000000000000008152600401610c1c9061250d565b60405180910390fd5b610c31848484846114c2565b50505050565b60088181548110610c4757600080fd5b906000526020600020016000915090508054610c6290612783565b80601f0160208091040260200160405190810160405280929190818152602001828054610c8e90612783565b8015610cdb5780601f10610cb057610100808354040283529160200191610cdb565b820191906000526020600020905b815481529060010190602001808311610cbe57829003601f168201915b505050505081565b6060610cee8261105b565b610d2d576040517f08c379a0000000000000000000000000000000000000000000000000000000008152600401610d24906124ad565b60405180910390fd5b6000610d3761151e565b90506000815111610d575760405180602001604052806000815250610d82565b80610d6184611535565b604051602001610d72929190612245565b6040516020818303038152906040525b915050919050565b60075481565b60076000815480929190610da3906127e6565b919050555066038d7ea4c680003414610df1576040517f08c379a0000000000000000000000000000000000000000000000000000000008152600401610de8906124ed565b60405180910390fd5b600981604051610e01919061222e565b908152602001604051809103902060009054906101000a900460ff1615610e5d576040517f08c379a0000000000000000000000000000000000000000000000000000000008152600401610e549061238d565b60405180910390fd5b6006546007541115610ea4576040517f08c379a0000000000000000000000000000000000000000000000000000000008152600401610e9b9061246d565b60405180910390fd5b6001600982604051610eb6919061222e565b908152602001604051809103902060006101000a81548160ff021916908315150217905550600881908060018154018082558091505060019003906000526020600020016000909190919091509080519060200190610f16929190611a8c565b50610f2333600754611696565b7fd09dc2282829fe7024fe5428646e6b831dab476fc5e8fc1b0386a07c44448b2681604051610f5291906122eb565b60405180910390a150565b6000600560008473ffffffffffffffffffffffffffffffffffffffff1673ffffffffffffffffffffffffffffffffffffffff16815260200190815260200160002060008373ffffffffffffffffffffffffffffffffffffffff1673ffffffffffffffffffffffffffffffffffffffff16815260200190815260200160002060009054906101000a900460ff16905092915050565b60007f01ffc9a7000000000000000000000000000000000000000000000000000000007bffffffffffffffffffffffffffffffffffffffffffffffffffffffff1916827bffffffffffffffffffffffffffffffffffffffffffffffffffffffff1916149050919050565b60008073ffffffffffffffffffffffffffffffffffffffff166002600084815260200190815260200160002060009054906101000a900473ffffffffffffffffffffffffffffffffffffffff1673ffffffffffffffffffffffffffffffffffffffff1614159050919050565b600033905090565b816004600083815260200190815260200160002060006101000a81548173ffffffffffffffffffffffffffffffffffffffff021916908373ffffffffffffffffffffffffffffffffffffffff160217905550808273ffffffffffffffffffffffffffffffffffffffff1661114283610822565b73ffffffffffffffffffffffffffffffffffffffff167f8c5be1e5ebec7d5bd14f71427d1e84f3dd0314c0f7b2291e5b200ac8c7c3b92560405160405180910390a45050565b60006111938261105b565b6111d2576040517f08c379a00000000000000000000000000000000000000000000000000000000081526004016111c9906123ad565b60405180910390fd5b60006111dd83610822565b90508073ffffffffffffffffffffffffffffffffffffffff168473ffffffffffffffffffffffffffffffffffffffff16148061124c57508373ffffffffffffffffffffffffffffffffffffffff16611234846105ff565b73ffffffffffffffffffffffffffffffffffffffff16145b8061125d575061125c8185610f5d565b5b91505092915050565b8273ffffffffffffffffffffffffffffffffffffffff1661128682610822565b73ffffffffffffffffffffffffffffffffffffffff16146112dc576040517f08c379a00000000000000000000000000000000000000000000000000000000081526004016112d39061248d565b60405180910390fd5b600073ffffffffffffffffffffffffffffffffffffffff168273ffffffffffffffffffffffffffffffffffffffff16141561134c576040517f08c379a00000000000000000000000000000000000000000000000000000000081526004016113439061234d565b60405180910390fd5b6113578383836116b4565b6113626000826110cf565b6001600360008573ffffffffffffffffffffffffffffffffffffffff1673ffffffffffffffffffffffffffffffffffffffff16815260200190815260200160002060008282546113b29190612699565b925050819055506001600360008473ffffffffffffffffffffffffffffffffffffffff1673ffffffffffffffffffffffffffffffffffffffff16815260200190815260200160002060008282546114099190612612565b92505081905550816002600083815260200190815260200160002060006101000a81548173ffffffffffffffffffffffffffffffffffffffff021916908373ffffffffffffffffffffffffffffffffffffffff160217905550808273ffffffffffffffffffffffffffffffffffffffff168473ffffffffffffffffffffffffffffffffffffffff167fddf252ad1be2c89b69c2b068fc378daa952ba7f163c4a11628f55a4df523b3ef60405160405180910390a4505050565b6114cd848484611266565b6114d9848484846116b9565b611518576040517f08c379a000000000000000000000000000000000000000000000000000000000815260040161150f9061230d565b60405180910390fd5b50505050565b606060405180602001604052806000815250905090565b6060600082141561157d576040518060400160405280600181526020017f30000000000000000000000000000000000000000000000000000000000000008152509050611691565b600082905060005b600082146115af578080611598906127e6565b915050600a826115a89190612668565b9150611585565b60008167ffffffffffffffff8111156115cb576115ca61291c565b5b6040519080825280601f01601f1916602001820160405280156115fd5781602001600182028036833780820191505090505b5090505b6000851461168a576001826116169190612699565b9150600a85611625919061282f565b60306116319190612612565b60f81b818381518110611647576116466128ed565b5b60200101907effffffffffffffffffffffffffffffffffffffffffffffffffffffffffffff1916908160001a905350600a856116839190612668565b9450611601565b8093505050505b919050565b6116b0828260405180602001604052806000815250611850565b5050565b505050565b60006116da8473ffffffffffffffffffffffffffffffffffffffff166118ab565b15611843578373ffffffffffffffffffffffffffffffffffffffff1663150b7a026117036110c7565b8786866040518563ffffffff1660e01b81526004016117259493929190612284565b602060405180830381600087803b15801561173f57600080fd5b505af192505050801561177057506040513d601f19601f8201168201806040525081019061176d9190611e68565b60015b6117f3573d80600081146117a0576040519150601f19603f3d011682016040523d82523d6000602084013e6117a5565b606091505b506000815114156117eb576040517f08c379a00000000000000000000000000000000000000000000000000000000081526004016117e29061230d565b60405180910390fd5b805181602001fd5b63150b7a0260e01b7bffffffffffffffffffffffffffffffffffffffffffffffffffffffff1916817bffffffffffffffffffffffffffffffffffffffffffffffffffffffff191614915050611848565b600190505b949350505050565b61185a83836118be565b61186760008484846116b9565b6118a6576040517f08c379a000000000000000000000000000000000000000000000000000000000815260040161189d9061230d565b60405180910390fd5b505050565b600080823b905060008111915050919050565b600073ffffffffffffffffffffffffffffffffffffffff168273ffffffffffffffffffffffffffffffffffffffff16141561192e576040517f08c379a00000000000000000000000000000000000000000000000000000000081526004016119259061242d565b60405180910390fd5b6119378161105b565b15611977576040517f08c379a000000000000000000000000000000000000000000000000000000000815260040161196e9061232d565b60405180910390fd5b611983600083836116b4565b6001600360008473ffffffffffffffffffffffffffffffffffffffff1673ffffffffffffffffffffffffffffffffffffffff16815260200190815260200160002060008282546119d39190612612565b92505081905550816002600083815260200190815260200160002060006101000a81548173ffffffffffffffffffffffffffffffffffffffff021916908373ffffffffffffffffffffffffffffffffffffffff160217905550808273ffffffffffffffffffffffffffffffffffffffff16600073ffffffffffffffffffffffffffffffffffffffff167fddf252ad1be2c89b69c2b068fc378daa952ba7f163c4a11628f55a4df523b3ef60405160405180910390a45050565b828054611a9890612783565b90600052602060002090601f016020900481019282611aba5760008555611b01565b82601f10611ad357805160ff1916838001178555611b01565b82800160010185558215611b01579182015b82811115611b00578251825591602001919060010190611ae5565b5b509050611b0e9190611b12565b5090565b5b80821115611b2b576000816000905550600101611b13565b5090565b6000611b42611b3d8461256d565b612548565b905082815260208101848484011115611b5e57611b5d612950565b5b611b69848285612741565b509392505050565b6000611b84611b7f8461259e565b612548565b905082815260208101848484011115611ba057611b9f612950565b5b611bab848285612741565b509392505050565b600081359050611bc281612dcb565b92915050565b600081359050611bd781612de2565b92915050565b600081359050611bec81612df9565b92915050565b600081519050611c0181612df9565b92915050565b600082601f830112611c1c57611c1b61294b565b5b8135611c2c848260208601611b2f565b91505092915050565b600082601f830112611c4a57611c4961294b565b5b8135611c5a848260208601611b71565b91505092915050565b600081359050611c7281612e10565b92915050565b600060208284031215611c8e57611c8d61295a565b5b6000611c9c84828501611bb3565b91505092915050565b60008060408385031215611cbc57611cbb61295a565b5b6000611cca85828601611bb3565b9250506020611cdb85828601611bb3565b9150509250929050565b600080600060608486031215611cfe57611cfd61295a565b5b6000611d0c86828701611bb3565b9350506020611d1d86828701611bb3565b9250506040611d2e86828701611c63565b9150509250925092565b60008060008060808587031215611d5257611d5161295a565b5b6000611d6087828801611bb3565b9450506020611d7187828801611bb3565b9350506040611d8287828801611c63565b925050606085013567ffffffffffffffff811115611da357611da2612955565b5b611daf87828801611c07565b91505092959194509250565b60008060408385031215611dd257611dd161295a565b5b6000611de085828601611bb3565b9250506020611df185828601611bc8565b9150509250929050565b60008060408385031215611e1257611e1161295a565b5b6000611e2085828601611bb3565b9250506020611e3185828601611c63565b9150509250929050565b600060208284031215611e5157611e5061295a565b5b6000611e5f84828501611bdd565b91505092915050565b600060208284031215611e7e57611e7d61295a565b5b6000611e8c84828501611bf2565b91505092915050565b600060208284031215611eab57611eaa61295a565b5b600082013567ffffffffffffffff811115611ec957611ec8612955565b5b611ed584828501611c35565b91505092915050565b600060208284031215611ef457611ef361295a565b5b6000611f0284828501611c63565b91505092915050565b611f14816126cd565b82525050565b611f23816126df565b82525050565b6000611f34826125cf565b611f3e81856125e5565b9350611f4e818560208601612750565b611f578161295f565b840191505092915050565b6000611f6d826125da565b611f7781856125f6565b9350611f87818560208601612750565b611f908161295f565b840191505092915050565b6000611fa6826125da565b611fb08185612607565b9350611fc0818560208601612750565b80840191505092915050565b6000611fd96032836125f6565b9150611fe482612970565b604082019050919050565b6000611ffc601c836125f6565b9150612007826129bf565b602082019050919050565b600061201f6024836125f6565b915061202a826129e8565b604082019050919050565b60006120426019836125f6565b915061204d82612a37565b602082019050919050565b60006120656019836125f6565b915061207082612a60565b602082019050919050565b6000612088602c836125f6565b915061209382612a89565b604082019050919050565b60006120ab6038836125f6565b91506120b682612ad8565b604082019050919050565b60006120ce602a836125f6565b91506120d982612b27565b604082019050919050565b60006120f16029836125f6565b91506120fc82612b76565b604082019050919050565b60006121146020836125f6565b915061211f82612bc5565b602082019050919050565b6000612137602c836125f6565b915061214282612bee565b604082019050919050565b600061215a6014836125f6565b915061216582612c3d565b602082019050919050565b600061217d6029836125f6565b915061218882612c66565b604082019050919050565b60006121a0602f836125f6565b91506121ab82612cb5565b604082019050919050565b60006121c36021836125f6565b91506121ce82612d04565b604082019050919050565b60006121e6601a836125f6565b91506121f182612d53565b602082019050919050565b60006122096031836125f6565b915061221482612d7c565b604082019050919050565b61222881612737565b82525050565b600061223a8284611f9b565b915081905092915050565b60006122518285611f9b565b915061225d8284611f9b565b91508190509392505050565b600060208201905061227e6000830184611f0b565b92915050565b60006080820190506122996000830187611f0b565b6122a66020830186611f0b565b6122b3604083018561221f565b81810360608301526122c58184611f29565b905095945050505050565b60006020820190506122e56000830184611f1a565b92915050565b600060208201905081810360008301526123058184611f62565b905092915050565b6000602082019050818103600083015261232681611fcc565b9050919050565b6000602082019050818103600083015261234681611fef565b9050919050565b6000602082019050818103600083015261236681612012565b9050919050565b6000602082019050818103600083015261238681612035565b9050919050565b600060208201905081810360008301526123a681612058565b9050919050565b600060208201905081810360008301526123c68161207b565b9050919050565b600060208201905081810360008301526123e68161209e565b9050919050565b60006020820190508181036000830152612406816120c1565b9050919050565b60006020820190508181036000830152612426816120e4565b9050919050565b6000602082019050818103600083015261244681612107565b9050919050565b600060208201905081810360008301526124668161212a565b9050919050565b600060208201905081810360008301526124868161214d565b9050919050565b600060208201905081810360008301526124a681612170565b9050919050565b600060208201905081810360008301526124c681612193565b9050919050565b600060208201905081810360008301526124e6816121b6565b9050919050565b60006020820190508181036000830152612506816121d9565b9050919050565b60006020820190508181036000830152612526816121fc565b9050919050565b6000602082019050612542600083018461221f565b92915050565b6000612552612563565b905061255e82826127b5565b919050565b6000604051905090565b600067ffffffffffffffff8211156125885761258761291c565b5b6125918261295f565b9050602081019050919050565b600067ffffffffffffffff8211156125b9576125b861291c565b5b6125c28261295f565b9050602081019050919050565b600081519050919050565b600081519050919050565b600082825260208201905092915050565b600082825260208201905092915050565b600081905092915050565b600061261d82612737565b915061262883612737565b9250827fffffffffffffffffffffffffffffffffffffffffffffffffffffffffffffffff0382111561265d5761265c612860565b5b828201905092915050565b600061267382612737565b915061267e83612737565b92508261268e5761268d61288f565b5b828204905092915050565b60006126a482612737565b91506126af83612737565b9250828210156126c2576126c1612860565b5b828203905092915050565b60006126d882612717565b9050919050565b60008115159050919050565b60007fffffffff0000000000000000000000000000000000000000000000000000000082169050919050565b600073ffffffffffffffffffffffffffffffffffffffff82169050919050565b6000819050919050565b82818337600083830152505050565b60005b8381101561276e578082015181840152602081019050612753565b8381111561277d576000848401525b50505050565b6000600282049050600182168061279b57607f821691505b602082108114156127af576127ae6128be565b5b50919050565b6127be8261295f565b810181811067ffffffffffffffff821117156127dd576127dc61291c565b5b80604052505050565b60006127f182612737565b91507fffffffffffffffffffffffffffffffffffffffffffffffffffffffffffffffff82141561282457612823612860565b5b600182019050919050565b600061283a82612737565b915061284583612737565b9250826128555761285461288f565b5b828206905092915050565b7f4e487b7100000000000000000000000000000000000000000000000000000000600052601160045260246000fd5b7f4e487b7100000000000000000000000000000000000000000000000000000000600052601260045260246000fd5b7f4e487b7100000000000000000000000000000000000000000000000000000000600052602260045260246000fd5b7f4e487b7100000000000000000000000000000000000000000000000000000000600052603260045260246000fd5b7f4e487b7100000000000000000000000000000000000000000000000000000000600052604160045260246000fd5b600080fd5b600080fd5b600080fd5b600080fd5b6000601f19601f8301169050919050565b7f4552433732313a207472616e7366657220746f206e6f6e20455243373231526560008201527f63656976657220696d706c656d656e7465720000000000000000000000000000602082015250565b7f4552433732313a20746f6b656e20616c7265616479206d696e74656400000000600082015250565b7f4552433732313a207472616e7366657220746f20746865207a65726f2061646460008201527f7265737300000000000000000000000000000000000000000000000000000000602082015250565b7f4552433732313a20617070726f766520746f2063616c6c657200000000000000600082015250565b7f5468697320436f6c6f7220616c72656164792065786973747300000000000000600082015250565b7f4552433732313a206f70657261746f7220717565727920666f72206e6f6e657860008201527f697374656e7420746f6b656e0000000000000000000000000000000000000000602082015250565b7f4552433732313a20617070726f76652063616c6c6572206973206e6f74206f7760008201527f6e6572206e6f7220617070726f76656420666f7220616c6c0000000000000000602082015250565b7f4552433732313a2062616c616e636520717565727920666f7220746865207a6560008201527f726f206164647265737300000000000000000000000000000000000000000000602082015250565b7f4552433732313a206f776e657220717565727920666f72206e6f6e657869737460008201527f656e7420746f6b656e0000000000000000000000000000000000000000000000602082015250565b7f4552433732313a206d696e7420746f20746865207a65726f2061646472657373600082015250565b7f4552433732313a20617070726f76656420717565727920666f72206e6f6e657860008201527f697374656e7420746f6b656e0000000000000000000000000000000000000000602082015250565b7f416c6c20436f6c6f7220617265206d696e746564000000000000000000000000600082015250565b7f4552433732313a207472616e73666572206f6620746f6b656e2074686174206960008201527f73206e6f74206f776e0000000000000000000000000000000000000000000000602082015250565b7f4552433732314d657461646174613a2055524920717565727920666f72206e6f60008201527f6e6578697374656e7420746f6b656e0000000000000000000000000000000000602082015250565b7f4552433732313a20617070726f76616c20746f2063757272656e74206f776e6560008201527f7200000000000000000000000000000000000000000000000000000000000000602082015250565b7f4f6e6520636f6c6f7220746f6b656e2069732031303020576569000000000000600082015250565b7f4552433732313a207472616e736665722063616c6c6572206973206e6f74206f60008201527f776e6572206e6f7220617070726f766564000000000000000000000000000000602082015250565b612dd4816126cd565b8114612ddf57600080fd5b50565b612deb816126df565b8114612df657600080fd5b50565b612e02816126eb565b8114612e0d57600080fd5b50565b612e1981612737565b8114612e2457600080fd5b5056fea26469706673582212200977640acb2e193d7a13a30a3aa2781c276041f66b6d7f84e9ac3185d235426d64736f6c63430008070033",
  "immutableReferences": {},
  "source": "pragma solidity ^0.8.7;\n\nimport \"@openzeppelin/contracts/token/ERC721/ERC721.sol\";\n\ncontract Color is ERC721 {\n    uint public cap = 999;\n    uint public mintedCount;\n    string[] public colors;\n    mapping(string => bool) public colorExists;\n\n    event newColorMinted(string _color);\n\n    constructor() ERC721('Color', 'COLOR') {}\n\n    function mint(string memory _color) public payable {\n        mintedCount++;\n        require(msg.value == 1000000000000000, \"One color token is 100 Wei\");\n        require(!colorExists[_color], \"This Color already exists\");\n        require(mintedCount <= cap, \"All Color are minted\");\n        colorExists[_color] = true;\n        colors.push(_color);\n        _safeMint(msg.sender, mintedCount);\n        emit newColorMinted(_color);\n    }\n}",
  "sourcePath": "/Users/stefanweber/solidity-mondrian-art-nft/contracts/Color.sol",
  "compiler": {
    "name": "solc",
    "version": "0.8.7+commit.e28d00a7.Emscripten.clang"
  },
  "schemaVersion": "3.4.3",
  "updatedAt": "2021-11-15T18:47:58.236Z",
  "networkType": "ethereum",
  "devdoc": {
    "kind": "dev",
    "methods": {
      "approve(address,uint256)": {
        "details": "See {IERC721-approve}."
      },
      "balanceOf(address)": {
        "details": "See {IERC721-balanceOf}."
      },
      "getApproved(uint256)": {
        "details": "See {IERC721-getApproved}."
      },
      "isApprovedForAll(address,address)": {
        "details": "See {IERC721-isApprovedForAll}."
      },
      "name()": {
        "details": "See {IERC721Metadata-name}."
      },
      "ownerOf(uint256)": {
        "details": "See {IERC721-ownerOf}."
      },
      "safeTransferFrom(address,address,uint256)": {
        "details": "See {IERC721-safeTransferFrom}."
      },
      "safeTransferFrom(address,address,uint256,bytes)": {
        "details": "See {IERC721-safeTransferFrom}."
      },
      "setApprovalForAll(address,bool)": {
        "details": "See {IERC721-setApprovalForAll}."
      },
      "supportsInterface(bytes4)": {
        "details": "See {IERC165-supportsInterface}."
      },
      "symbol()": {
        "details": "See {IERC721Metadata-symbol}."
      },
      "tokenURI(uint256)": {
        "details": "See {IERC721Metadata-tokenURI}."
      },
      "transferFrom(address,address,uint256)": {
        "details": "See {IERC721-transferFrom}."
      }
    },
    "version": 1
  },
  "userdoc": {
    "kind": "user",
    "methods": {},
    "version": 1
  }
}