{
  "contractName": "Mondrian",
  "abi": [
    {
      "inputs": [],
      "stateMutability": "nonpayable",
      "type": "constructor"
    },
    {
      "anonymous": false,
      "inputs": [
        {
          "indexed": true,
          "internalType": "address",
          "name": "owner",
          "type": "address"
        },
        {
          "indexed": true,
          "internalType": "address",
          "name": "approved",
          "type": "address"
        },
        {
          "indexed": true,
          "internalType": "uint256",
          "name": "tokenId",
          "type": "uint256"
        }
      ],
      "name": "Approval",
      "type": "event"
    },
    {
      "anonymous": false,
      "inputs": [
        {
          "indexed": true,
          "internalType": "address",
          "name": "owner",
          "type": "address"
        },
        {
          "indexed": true,
          "internalType": "address",
          "name": "operator",
          "type": "address"
        },
        {
          "indexed": false,
          "internalType": "bool",
          "name": "approved",
          "type": "bool"
        }
      ],
      "name": "ApprovalForAll",
      "type": "event"
    },
    {
      "anonymous": false,
      "inputs": [
        {
          "indexed": true,
          "internalType": "address",
          "name": "from",
          "type": "address"
        },
        {
          "indexed": true,
          "internalType": "address",
          "name": "to",
          "type": "address"
        },
        {
          "indexed": true,
          "internalType": "uint256",
          "name": "tokenId",
          "type": "uint256"
        }
      ],
      "name": "Transfer",
      "type": "event"
    },
    {
      "inputs": [
        {
          "internalType": "address",
          "name": "to",
          "type": "address"
        },
        {
          "internalType": "uint256",
          "name": "tokenId",
          "type": "uint256"
        }
      ],
      "name": "approve",
      "outputs": [],
      "stateMutability": "nonpayable",
      "type": "function"
    },
    {
      "inputs": [
        {
          "internalType": "address",
          "name": "owner",
          "type": "address"
        }
      ],
      "name": "balanceOf",
      "outputs": [
        {
          "internalType": "uint256",
          "name": "",
          "type": "uint256"
        }
      ],
      "stateMutability": "view",
      "type": "function",
      "constant": true
    },
    {
      "inputs": [],
      "name": "cap",
      "outputs": [
        {
          "internalType": "uint256",
          "name": "",
          "type": "uint256"
        }
      ],
      "stateMutability": "view",
      "type": "function",
      "constant": true
    },
    {
      "inputs": [
        {
          "internalType": "uint256",
          "name": "tokenId",
          "type": "uint256"
        }
      ],
      "name": "getApproved",
      "outputs": [
        {
          "internalType": "address",
          "name": "",
          "type": "address"
        }
      ],
      "stateMutability": "view",
      "type": "function",
      "constant": true
    },
    {
      "inputs": [
        {
          "internalType": "address",
          "name": "owner",
          "type": "address"
        },
        {
          "internalType": "address",
          "name": "operator",
          "type": "address"
        }
      ],
      "name": "isApprovedForAll",
      "outputs": [
        {
          "internalType": "bool",
          "name": "",
          "type": "bool"
        }
      ],
      "stateMutability": "view",
      "type": "function",
      "constant": true
    },
    {
      "inputs": [],
      "name": "mintedCount",
      "outputs": [
        {
          "internalType": "uint256",
          "name": "",
          "type": "uint256"
        }
      ],
      "stateMutability": "view",
      "type": "function",
      "constant": true
    },
    {
      "inputs": [
        {
          "internalType": "string",
          "name": "",
          "type": "string"
        }
      ],
      "name": "mondrianExists",
      "outputs": [
        {
          "internalType": "bool",
          "name": "",
          "type": "bool"
        }
      ],
      "stateMutability": "view",
      "type": "function",
      "constant": true
    },
    {
      "inputs": [
        {
          "internalType": "uint256",
          "name": "",
          "type": "uint256"
        }
      ],
      "name": "mondrians",
      "outputs": [
        {
          "internalType": "string",
          "name": "",
          "type": "string"
        }
      ],
      "stateMutability": "view",
      "type": "function",
      "constant": true
    },
    {
      "inputs": [],
      "name": "name",
      "outputs": [
        {
          "internalType": "string",
          "name": "",
          "type": "string"
        }
      ],
      "stateMutability": "view",
      "type": "function",
      "constant": true
    },
    {
      "inputs": [
        {
          "internalType": "uint256",
          "name": "tokenId",
          "type": "uint256"
        }
      ],
      "name": "ownerOf",
      "outputs": [
        {
          "internalType": "address",
          "name": "",
          "type": "address"
        }
      ],
      "stateMutability": "view",
      "type": "function",
      "constant": true
    },
    {
      "inputs": [
        {
          "internalType": "address",
          "name": "from",
          "type": "address"
        },
        {
          "internalType": "address",
          "name": "to",
          "type": "address"
        },
        {
          "internalType": "uint256",
          "name": "tokenId",
          "type": "uint256"
        }
      ],
      "name": "safeTransferFrom",
      "outputs": [],
      "stateMutability": "nonpayable",
      "type": "function"
    },
    {
      "inputs": [
        {
          "internalType": "address",
          "name": "from",
          "type": "address"
        },
        {
          "internalType": "address",
          "name": "to",
          "type": "address"
        },
        {
          "internalType": "uint256",
          "name": "tokenId",
          "type": "uint256"
        },
        {
          "internalType": "bytes",
          "name": "_data",
          "type": "bytes"
        }
      ],
      "name": "safeTransferFrom",
      "outputs": [],
      "stateMutability": "nonpayable",
      "type": "function"
    },
    {
      "inputs": [
        {
          "internalType": "address",
          "name": "operator",
          "type": "address"
        },
        {
          "internalType": "bool",
          "name": "approved",
          "type": "bool"
        }
      ],
      "name": "setApprovalForAll",
      "outputs": [],
      "stateMutability": "nonpayable",
      "type": "function"
    },
    {
      "inputs": [
        {
          "internalType": "bytes4",
          "name": "interfaceId",
          "type": "bytes4"
        }
      ],
      "name": "supportsInterface",
      "outputs": [
        {
          "internalType": "bool",
          "name": "",
          "type": "bool"
        }
      ],
      "stateMutability": "view",
      "type": "function",
      "constant": true
    },
    {
      "inputs": [],
      "name": "symbol",
      "outputs": [
        {
          "internalType": "string",
          "name": "",
          "type": "string"
        }
      ],
      "stateMutability": "view",
      "type": "function",
      "constant": true
    },
    {
      "inputs": [
        {
          "internalType": "uint256",
          "name": "tokenId",
          "type": "uint256"
        }
      ],
      "name": "tokenURI",
      "outputs": [
        {
          "internalType": "string",
          "name": "",
          "type": "string"
        }
      ],
      "stateMutability": "view",
      "type": "function",
      "constant": true
    },
    {
      "inputs": [
        {
          "internalType": "address",
          "name": "from",
          "type": "address"
        },
        {
          "internalType": "address",
          "name": "to",
          "type": "address"
        },
        {
          "internalType": "uint256",
          "name": "tokenId",
          "type": "uint256"
        }
      ],
      "name": "transferFrom",
      "outputs": [],
      "stateMutability": "nonpayable",
      "type": "function"
    },
    {
      "inputs": [
        {
          "internalType": "string",
          "name": "_base64String",
          "type": "string"
        }
      ],
      "name": "mint",
      "outputs": [],
      "stateMutability": "nonpayable",
      "type": "function"
    }
  ],
  "bytecode": "0x60806040526103e76006553480156200001757600080fd5b506040518060400160405280600881526020017f4d6f6e647269616e0000000000000000000000000000000000000000000000008152506040518060400160405280600481526020017f504945540000000000000000000000000000000000000000000000000000000081525081600090805190602001906200009c929190620000be565b508060019080519060200190620000b5929190620000be565b505050620001d3565b828054620000cc906200016e565b90600052602060002090601f016020900481019282620000f057600085556200013c565b82601f106200010b57805160ff19168380011785556200013c565b828001600101855582156200013c579182015b828111156200013b5782518255916020019190600101906200011e565b5b5090506200014b91906200014f565b5090565b5b808211156200016a57600081600090555060010162000150565b5090565b600060028204905060018216806200018757607f821691505b602082108114156200019e576200019d620001a4565b5b50919050565b7f4e487b7100000000000000000000000000000000000000000000000000000000600052602260045260246000fd5b612ca180620001e36000396000f3fe608060405234801561001057600080fd5b50600436106101165760003560e01c806370a08231116100a2578063c87b56dd11610071578063c87b56dd146102f1578063cf721b1514610321578063d2e706781461033f578063d85d3d271461036f578063e985e9c51461038b57610116565b806370a082311461026b57806395d89b411461029b578063a22cb465146102b9578063b88d4fde146102d557610116565b806323b872dd116100e957806323b872dd146101b5578063355274ea146101d157806342842e0e146101ef5780636352211e1461020b578063655e2f5a1461023b57610116565b806301ffc9a71461011b57806306fdde031461014b578063081812fc14610169578063095ea7b314610199575b600080fd5b61013560048036038101906101309190611ceb565b6103bb565b604051610142919061215d565b60405180910390f35b61015361049d565b6040516101609190612178565b60405180910390f35b610183600480360381019061017e9190611d8e565b61052f565b60405161019091906120f6565b60405180910390f35b6101b360048036038101906101ae9190611cab565b6105b4565b005b6101cf60048036038101906101ca9190611b95565b6106cc565b005b6101d961072c565b6040516101e6919061239a565b60405180910390f35b61020960048036038101906102049190611b95565b610732565b005b61022560048036038101906102209190611d8e565b610752565b60405161023291906120f6565b60405180910390f35b61025560048036038101906102509190611d8e565b610804565b6040516102629190612178565b60405180910390f35b61028560048036038101906102809190611b28565b6108b0565b604051610292919061239a565b60405180910390f35b6102a3610968565b6040516102b09190612178565b60405180910390f35b6102d360048036038101906102ce9190611c6b565b6109fa565b005b6102ef60048036038101906102ea9190611be8565b610b7b565b005b61030b60048036038101906103069190611d8e565b610bdd565b6040516103189190612178565b60405180910390f35b610329610c84565b604051610336919061239a565b60405180910390f35b61035960048036038101906103549190611d45565b610c8a565b604051610366919061215d565b60405180910390f35b61038960048036038101906103849190611d45565b610cc0565b005b6103a560048036038101906103a09190611b55565b610e0d565b6040516103b2919061215d565b60405180910390f35b60007f80ac58cd000000000000000000000000000000000000000000000000000000007bffffffffffffffffffffffffffffffffffffffffffffffffffffffff1916827bffffffffffffffffffffffffffffffffffffffffffffffffffffffff1916148061048657507f5b5e139f000000000000000000000000000000000000000000000000000000007bffffffffffffffffffffffffffffffffffffffffffffffffffffffff1916827bffffffffffffffffffffffffffffffffffffffffffffffffffffffff1916145b80610496575061049582610ea1565b5b9050919050565b6060600080546104ac906125f0565b80601f01602080910402602001604051908101604052809291908181526020018280546104d8906125f0565b80156105255780601f106104fa57610100808354040283529160200191610525565b820191906000526020600020905b81548152906001019060200180831161050857829003601f168201915b5050505050905090565b600061053a82610f0b565b610579576040517f08c379a0000000000000000000000000000000000000000000000000000000008152600401610570906122da565b60405180910390fd5b6004600083815260200190815260200160002060009054906101000a900473ffffffffffffffffffffffffffffffffffffffff169050919050565b60006105bf82610752565b90508073ffffffffffffffffffffffffffffffffffffffff168373ffffffffffffffffffffffffffffffffffffffff161415610630576040517f08c379a00000000000000000000000000000000000000000000000000000000081526004016106279061233a565b60405180910390fd5b8073ffffffffffffffffffffffffffffffffffffffff1661064f610f77565b73ffffffffffffffffffffffffffffffffffffffff16148061067e575061067d81610678610f77565b610e0d565b5b6106bd576040517f08c379a00000000000000000000000000000000000000000000000000000000081526004016106b49061225a565b60405180910390fd5b6106c78383610f7f565b505050565b6106dd6106d7610f77565b82611038565b61071c576040517f08c379a00000000000000000000000000000000000000000000000000000000081526004016107139061235a565b60405180910390fd5b610727838383611116565b505050565b60065481565b61074d83838360405180602001604052806000815250610b7b565b505050565b6000806002600084815260200190815260200160002060009054906101000a900473ffffffffffffffffffffffffffffffffffffffff169050600073ffffffffffffffffffffffffffffffffffffffff168173ffffffffffffffffffffffffffffffffffffffff1614156107fb576040517f08c379a00000000000000000000000000000000000000000000000000000000081526004016107f29061229a565b60405180910390fd5b80915050919050565b6008818154811061081457600080fd5b90600052602060002001600091509050805461082f906125f0565b80601f016020809104026020016040519081016040528092919081815260200182805461085b906125f0565b80156108a85780601f1061087d576101008083540402835291602001916108a8565b820191906000526020600020905b81548152906001019060200180831161088b57829003601f168201915b505050505081565b60008073ffffffffffffffffffffffffffffffffffffffff168273ffffffffffffffffffffffffffffffffffffffff161415610921576040517f08c379a00000000000000000000000000000000000000000000000000000000081526004016109189061227a565b60405180910390fd5b600360008373ffffffffffffffffffffffffffffffffffffffff1673ffffffffffffffffffffffffffffffffffffffff168152602001908152602001600020549050919050565b606060018054610977906125f0565b80601f01602080910402602001604051908101604052809291908181526020018280546109a3906125f0565b80156109f05780601f106109c5576101008083540402835291602001916109f0565b820191906000526020600020905b8154815290600101906020018083116109d357829003601f168201915b5050505050905090565b610a02610f77565b73ffffffffffffffffffffffffffffffffffffffff168273ffffffffffffffffffffffffffffffffffffffff161415610a70576040517f08c379a0000000000000000000000000000000000000000000000000000000008152600401610a679061221a565b60405180910390fd5b8060056000610a7d610f77565b73ffffffffffffffffffffffffffffffffffffffff1673ffffffffffffffffffffffffffffffffffffffff16815260200190815260200160002060008473ffffffffffffffffffffffffffffffffffffffff1673ffffffffffffffffffffffffffffffffffffffff16815260200190815260200160002060006101000a81548160ff0219169083151502179055508173ffffffffffffffffffffffffffffffffffffffff16610b2a610f77565b73ffffffffffffffffffffffffffffffffffffffff167f17307eab39ab6107e8899845ad3d59bd9653f200f220920489ca2b5937696c3183604051610b6f919061215d565b60405180910390a35050565b610b8c610b86610f77565b83611038565b610bcb576040517f08c379a0000000000000000000000000000000000000000000000000000000008152600401610bc29061235a565b60405180910390fd5b610bd784848484611372565b50505050565b6060610be882610f0b565b610c27576040517f08c379a0000000000000000000000000000000000000000000000000000000008152600401610c1e9061231a565b60405180910390fd5b6000610c316113ce565b90506000815111610c515760405180602001604052806000815250610c7c565b80610c5b846113e5565b604051602001610c6c9291906120d2565b6040516020818303038152906040525b915050919050565b60075481565b6009818051602081018201805184825260208301602085012081835280955050505050506000915054906101000a900460ff1681565b60076000815480929190610cd390612653565b9190505550600981604051610ce891906120bb565b908152602001604051809103902060009054906101000a900460ff1615610d44576040517f08c379a0000000000000000000000000000000000000000000000000000000008152600401610d3b9061237a565b60405180910390fd5b6006546007541115610d8b576040517f08c379a0000000000000000000000000000000000000000000000000000000008152600401610d82906121da565b60405180910390fd5b6001600982604051610d9d91906120bb565b908152602001604051809103902060006101000a81548160ff021916908315150217905550600881908060018154018082558091505060019003906000526020600020016000909190919091509080519060200190610dfd92919061193c565b50610e0a33600754611546565b50565b6000600560008473ffffffffffffffffffffffffffffffffffffffff1673ffffffffffffffffffffffffffffffffffffffff16815260200190815260200160002060008373ffffffffffffffffffffffffffffffffffffffff1673ffffffffffffffffffffffffffffffffffffffff16815260200190815260200160002060009054906101000a900460ff16905092915050565b60007f01ffc9a7000000000000000000000000000000000000000000000000000000007bffffffffffffffffffffffffffffffffffffffffffffffffffffffff1916827bffffffffffffffffffffffffffffffffffffffffffffffffffffffff1916149050919050565b60008073ffffffffffffffffffffffffffffffffffffffff166002600084815260200190815260200160002060009054906101000a900473ffffffffffffffffffffffffffffffffffffffff1673ffffffffffffffffffffffffffffffffffffffff1614159050919050565b600033905090565b816004600083815260200190815260200160002060006101000a81548173ffffffffffffffffffffffffffffffffffffffff021916908373ffffffffffffffffffffffffffffffffffffffff160217905550808273ffffffffffffffffffffffffffffffffffffffff16610ff283610752565b73ffffffffffffffffffffffffffffffffffffffff167f8c5be1e5ebec7d5bd14f71427d1e84f3dd0314c0f7b2291e5b200ac8c7c3b92560405160405180910390a45050565b600061104382610f0b565b611082576040517f08c379a00000000000000000000000000000000000000000000000000000000081526004016110799061223a565b60405180910390fd5b600061108d83610752565b90508073ffffffffffffffffffffffffffffffffffffffff168473ffffffffffffffffffffffffffffffffffffffff1614806110fc57508373ffffffffffffffffffffffffffffffffffffffff166110e48461052f565b73ffffffffffffffffffffffffffffffffffffffff16145b8061110d575061110c8185610e0d565b5b91505092915050565b8273ffffffffffffffffffffffffffffffffffffffff1661113682610752565b73ffffffffffffffffffffffffffffffffffffffff161461118c576040517f08c379a0000000000000000000000000000000000000000000000000000000008152600401611183906122fa565b60405180910390fd5b600073ffffffffffffffffffffffffffffffffffffffff168273ffffffffffffffffffffffffffffffffffffffff1614156111fc576040517f08c379a00000000000000000000000000000000000000000000000000000000081526004016111f3906121fa565b60405180910390fd5b611207838383611564565b611212600082610f7f565b6001600360008573ffffffffffffffffffffffffffffffffffffffff1673ffffffffffffffffffffffffffffffffffffffff16815260200190815260200160002060008282546112629190612506565b925050819055506001600360008473ffffffffffffffffffffffffffffffffffffffff1673ffffffffffffffffffffffffffffffffffffffff16815260200190815260200160002060008282546112b9919061247f565b92505081905550816002600083815260200190815260200160002060006101000a81548173ffffffffffffffffffffffffffffffffffffffff021916908373ffffffffffffffffffffffffffffffffffffffff160217905550808273ffffffffffffffffffffffffffffffffffffffff168473ffffffffffffffffffffffffffffffffffffffff167fddf252ad1be2c89b69c2b068fc378daa952ba7f163c4a11628f55a4df523b3ef60405160405180910390a4505050565b61137d848484611116565b61138984848484611569565b6113c8576040517f08c379a00000000000000000000000000000000000000000000000000000000081526004016113bf9061219a565b60405180910390fd5b50505050565b606060405180602001604052806000815250905090565b6060600082141561142d576040518060400160405280600181526020017f30000000000000000000000000000000000000000000000000000000000000008152509050611541565b600082905060005b6000821461145f57808061144890612653565b915050600a8261145891906124d5565b9150611435565b60008167ffffffffffffffff81111561147b5761147a612789565b5b6040519080825280601f01601f1916602001820160405280156114ad5781602001600182028036833780820191505090505b5090505b6000851461153a576001826114c69190612506565b9150600a856114d5919061269c565b60306114e1919061247f565b60f81b8183815181106114f7576114f661275a565b5b60200101907effffffffffffffffffffffffffffffffffffffffffffffffffffffffffffff1916908160001a905350600a8561153391906124d5565b94506114b1565b8093505050505b919050565b611560828260405180602001604052806000815250611700565b5050565b505050565b600061158a8473ffffffffffffffffffffffffffffffffffffffff1661175b565b156116f3578373ffffffffffffffffffffffffffffffffffffffff1663150b7a026115b3610f77565b8786866040518563ffffffff1660e01b81526004016115d59493929190612111565b602060405180830381600087803b1580156115ef57600080fd5b505af192505050801561162057506040513d601f19601f8201168201806040525081019061161d9190611d18565b60015b6116a3573d8060008114611650576040519150601f19603f3d011682016040523d82523d6000602084013e611655565b606091505b5060008151141561169b576040517f08c379a00000000000000000000000000000000000000000000000000000000081526004016116929061219a565b60405180910390fd5b805181602001fd5b63150b7a0260e01b7bffffffffffffffffffffffffffffffffffffffffffffffffffffffff1916817bffffffffffffffffffffffffffffffffffffffffffffffffffffffff1916149150506116f8565b600190505b949350505050565b61170a838361176e565b6117176000848484611569565b611756576040517f08c379a000000000000000000000000000000000000000000000000000000000815260040161174d9061219a565b60405180910390fd5b505050565b600080823b905060008111915050919050565b600073ffffffffffffffffffffffffffffffffffffffff168273ffffffffffffffffffffffffffffffffffffffff1614156117de576040517f08c379a00000000000000000000000000000000000000000000000000000000081526004016117d5906122ba565b60405180910390fd5b6117e781610f0b565b15611827576040517f08c379a000000000000000000000000000000000000000000000000000000000815260040161181e906121ba565b60405180910390fd5b61183360008383611564565b6001600360008473ffffffffffffffffffffffffffffffffffffffff1673ffffffffffffffffffffffffffffffffffffffff1681526020019081526020016000206000828254611883919061247f565b92505081905550816002600083815260200190815260200160002060006101000a81548173ffffffffffffffffffffffffffffffffffffffff021916908373ffffffffffffffffffffffffffffffffffffffff160217905550808273ffffffffffffffffffffffffffffffffffffffff16600073ffffffffffffffffffffffffffffffffffffffff167fddf252ad1be2c89b69c2b068fc378daa952ba7f163c4a11628f55a4df523b3ef60405160405180910390a45050565b828054611948906125f0565b90600052602060002090601f01602090048101928261196a57600085556119b1565b82601f1061198357805160ff19168380011785556119b1565b828001600101855582156119b1579182015b828111156119b0578251825591602001919060010190611995565b5b5090506119be91906119c2565b5090565b5b808211156119db5760008160009055506001016119c3565b5090565b60006119f26119ed846123da565b6123b5565b905082815260208101848484011115611a0e57611a0d6127bd565b5b611a198482856125ae565b509392505050565b6000611a34611a2f8461240b565b6123b5565b905082815260208101848484011115611a5057611a4f6127bd565b5b611a5b8482856125ae565b509392505050565b600081359050611a7281612c0f565b92915050565b600081359050611a8781612c26565b92915050565b600081359050611a9c81612c3d565b92915050565b600081519050611ab181612c3d565b92915050565b600082601f830112611acc57611acb6127b8565b5b8135611adc8482602086016119df565b91505092915050565b600082601f830112611afa57611af96127b8565b5b8135611b0a848260208601611a21565b91505092915050565b600081359050611b2281612c54565b92915050565b600060208284031215611b3e57611b3d6127c7565b5b6000611b4c84828501611a63565b91505092915050565b60008060408385031215611b6c57611b6b6127c7565b5b6000611b7a85828601611a63565b9250506020611b8b85828601611a63565b9150509250929050565b600080600060608486031215611bae57611bad6127c7565b5b6000611bbc86828701611a63565b9350506020611bcd86828701611a63565b9250506040611bde86828701611b13565b9150509250925092565b60008060008060808587031215611c0257611c016127c7565b5b6000611c1087828801611a63565b9450506020611c2187828801611a63565b9350506040611c3287828801611b13565b925050606085013567ffffffffffffffff811115611c5357611c526127c2565b5b611c5f87828801611ab7565b91505092959194509250565b60008060408385031215611c8257611c816127c7565b5b6000611c9085828601611a63565b9250506020611ca185828601611a78565b9150509250929050565b60008060408385031215611cc257611cc16127c7565b5b6000611cd085828601611a63565b9250506020611ce185828601611b13565b9150509250929050565b600060208284031215611d0157611d006127c7565b5b6000611d0f84828501611a8d565b91505092915050565b600060208284031215611d2e57611d2d6127c7565b5b6000611d3c84828501611aa2565b91505092915050565b600060208284031215611d5b57611d5a6127c7565b5b600082013567ffffffffffffffff811115611d7957611d786127c2565b5b611d8584828501611ae5565b91505092915050565b600060208284031215611da457611da36127c7565b5b6000611db284828501611b13565b91505092915050565b611dc48161253a565b82525050565b611dd38161254c565b82525050565b6000611de48261243c565b611dee8185612452565b9350611dfe8185602086016125bd565b611e07816127cc565b840191505092915050565b6000611e1d82612447565b611e278185612463565b9350611e378185602086016125bd565b611e40816127cc565b840191505092915050565b6000611e5682612447565b611e608185612474565b9350611e708185602086016125bd565b80840191505092915050565b6000611e89603283612463565b9150611e94826127dd565b604082019050919050565b6000611eac601c83612463565b9150611eb78261282c565b602082019050919050565b6000611ecf601883612463565b9150611eda82612855565b602082019050919050565b6000611ef2602483612463565b9150611efd8261287e565b604082019050919050565b6000611f15601983612463565b9150611f20826128cd565b602082019050919050565b6000611f38602c83612463565b9150611f43826128f6565b604082019050919050565b6000611f5b603883612463565b9150611f6682612945565b604082019050919050565b6000611f7e602a83612463565b9150611f8982612994565b604082019050919050565b6000611fa1602983612463565b9150611fac826129e3565b604082019050919050565b6000611fc4602083612463565b9150611fcf82612a32565b602082019050919050565b6000611fe7602c83612463565b9150611ff282612a5b565b604082019050919050565b600061200a602983612463565b915061201582612aaa565b604082019050919050565b600061202d602f83612463565b915061203882612af9565b604082019050919050565b6000612050602183612463565b915061205b82612b48565b604082019050919050565b6000612073603183612463565b915061207e82612b97565b604082019050919050565b6000612096601c83612463565b91506120a182612be6565b602082019050919050565b6120b5816125a4565b82525050565b60006120c78284611e4b565b915081905092915050565b60006120de8285611e4b565b91506120ea8284611e4b565b91508190509392505050565b600060208201905061210b6000830184611dbb565b92915050565b60006080820190506121266000830187611dbb565b6121336020830186611dbb565b61214060408301856120ac565b81810360608301526121528184611dd9565b905095945050505050565b60006020820190506121726000830184611dca565b92915050565b600060208201905081810360008301526121928184611e12565b905092915050565b600060208201905081810360008301526121b381611e7c565b9050919050565b600060208201905081810360008301526121d381611e9f565b9050919050565b600060208201905081810360008301526121f381611ec2565b9050919050565b6000602082019050818103600083015261221381611ee5565b9050919050565b6000602082019050818103600083015261223381611f08565b9050919050565b6000602082019050818103600083015261225381611f2b565b9050919050565b6000602082019050818103600083015261227381611f4e565b9050919050565b6000602082019050818103600083015261229381611f71565b9050919050565b600060208201905081810360008301526122b381611f94565b9050919050565b600060208201905081810360008301526122d381611fb7565b9050919050565b600060208201905081810360008301526122f381611fda565b9050919050565b6000602082019050818103600083015261231381611ffd565b9050919050565b6000602082019050818103600083015261233381612020565b9050919050565b6000602082019050818103600083015261235381612043565b9050919050565b6000602082019050818103600083015261237381612066565b9050919050565b6000602082019050818103600083015261239381612089565b9050919050565b60006020820190506123af60008301846120ac565b92915050565b60006123bf6123d0565b90506123cb8282612622565b919050565b6000604051905090565b600067ffffffffffffffff8211156123f5576123f4612789565b5b6123fe826127cc565b9050602081019050919050565b600067ffffffffffffffff82111561242657612425612789565b5b61242f826127cc565b9050602081019050919050565b600081519050919050565b600081519050919050565b600082825260208201905092915050565b600082825260208201905092915050565b600081905092915050565b600061248a826125a4565b9150612495836125a4565b9250827fffffffffffffffffffffffffffffffffffffffffffffffffffffffffffffffff038211156124ca576124c96126cd565b5b828201905092915050565b60006124e0826125a4565b91506124eb836125a4565b9250826124fb576124fa6126fc565b5b828204905092915050565b6000612511826125a4565b915061251c836125a4565b92508282101561252f5761252e6126cd565b5b828203905092915050565b600061254582612584565b9050919050565b60008115159050919050565b60007fffffffff0000000000000000000000000000000000000000000000000000000082169050919050565b600073ffffffffffffffffffffffffffffffffffffffff82169050919050565b6000819050919050565b82818337600083830152505050565b60005b838110156125db5780820151818401526020810190506125c0565b838111156125ea576000848401525b50505050565b6000600282049050600182168061260857607f821691505b6020821081141561261c5761261b61272b565b5b50919050565b61262b826127cc565b810181811067ffffffffffffffff8211171561264a57612649612789565b5b80604052505050565b600061265e826125a4565b91507fffffffffffffffffffffffffffffffffffffffffffffffffffffffffffffffff821415612691576126906126cd565b5b600182019050919050565b60006126a7826125a4565b91506126b2836125a4565b9250826126c2576126c16126fc565b5b828206905092915050565b7f4e487b7100000000000000000000000000000000000000000000000000000000600052601160045260246000fd5b7f4e487b7100000000000000000000000000000000000000000000000000000000600052601260045260246000fd5b7f4e487b7100000000000000000000000000000000000000000000000000000000600052602260045260246000fd5b7f4e487b7100000000000000000000000000000000000000000000000000000000600052603260045260246000fd5b7f4e487b7100000000000000000000000000000000000000000000000000000000600052604160045260246000fd5b600080fd5b600080fd5b600080fd5b600080fd5b6000601f19601f8301169050919050565b7f4552433732313a207472616e7366657220746f206e6f6e20455243373231526560008201527f63656976657220696d706c656d656e7465720000000000000000000000000000602082015250565b7f4552433732313a20746f6b656e20616c7265616479206d696e74656400000000600082015250565b7f416c6c204d6f6e647269616e7320617265206d696e7465640000000000000000600082015250565b7f4552433732313a207472616e7366657220746f20746865207a65726f2061646460008201527f7265737300000000000000000000000000000000000000000000000000000000602082015250565b7f4552433732313a20617070726f766520746f2063616c6c657200000000000000600082015250565b7f4552433732313a206f70657261746f7220717565727920666f72206e6f6e657860008201527f697374656e7420746f6b656e0000000000000000000000000000000000000000602082015250565b7f4552433732313a20617070726f76652063616c6c6572206973206e6f74206f7760008201527f6e6572206e6f7220617070726f76656420666f7220616c6c0000000000000000602082015250565b7f4552433732313a2062616c616e636520717565727920666f7220746865207a6560008201527f726f206164647265737300000000000000000000000000000000000000000000602082015250565b7f4552433732313a206f776e657220717565727920666f72206e6f6e657869737460008201527f656e7420746f6b656e0000000000000000000000000000000000000000000000602082015250565b7f4552433732313a206d696e7420746f20746865207a65726f2061646472657373600082015250565b7f4552433732313a20617070726f76656420717565727920666f72206e6f6e657860008201527f697374656e7420746f6b656e0000000000000000000000000000000000000000602082015250565b7f4552433732313a207472616e73666572206f6620746f6b656e2074686174206960008201527f73206e6f74206f776e0000000000000000000000000000000000000000000000602082015250565b7f4552433732314d657461646174613a2055524920717565727920666f72206e6f60008201527f6e6578697374656e7420746f6b656e0000000000000000000000000000000000602082015250565b7f4552433732313a20617070726f76616c20746f2063757272656e74206f776e6560008201527f7200000000000000000000000000000000000000000000000000000000000000602082015250565b7f4552433732313a207472616e736665722063616c6c6572206973206e6f74206f60008201527f776e6572206e6f7220617070726f766564000000000000000000000000000000602082015250565b7f54686973204d6f6e647269616e20616c72656164792065786973747300000000600082015250565b612c188161253a565b8114612c2357600080fd5b50565b612c2f8161254c565b8114612c3a57600080fd5b50565b612c4681612558565b8114612c5157600080fd5b50565b612c5d816125a4565b8114612c6857600080fd5b5056fea2646970667358221220309ab33bdb6765223ca49d7dacfd74a77025425b3a5ee085ad7d1fb894b744c264736f6c63430008070033",
  "immutableReferences": {},
  "source": "pragma solidity ^0.8.7;\n\nimport \"@openzeppelin/contracts/token/ERC721/ERC721.sol\";\n\ncontract Mondrian is ERC721 {\n    uint public cap = 999;\n    uint public mintedCount;\n    string[] public mondrians;\n    mapping(string => bool) public mondrianExists;\n\n    constructor() ERC721('Mondrian', 'PIET') {}\n\n    function mint(string memory _base64String) public {\n        mintedCount++;\n        require(!mondrianExists[_base64String], \"This Mondrian already exists\");\n        require(mintedCount <= cap, \"All Mondrians are minted\");\n        mondrianExists[_base64String] = true;\n        mondrians.push(_base64String);\n        _safeMint(msg.sender, mintedCount);\n    }\n}",
  "sourcePath": "/Users/stefanweber/solidity-mondrian-art-nft/contracts/Mondrian.sol",
  "compiler": {
    "name": "solc",
    "version": "0.8.7+commit.e28d00a7.Emscripten.clang"
  },
  "schemaVersion": "3.4.3",
  "updatedAt": "2021-11-15T15:32:45.095Z",
  "networkType": "ethereum",
  "devdoc": {
    "kind": "dev",
    "methods": {
      "approve(address,uint256)": {
        "details": "See {IERC721-approve}."
      },
      "balanceOf(address)": {
        "details": "See {IERC721-balanceOf}."
      },
      "getApproved(uint256)": {
        "details": "See {IERC721-getApproved}."
      },
      "isApprovedForAll(address,address)": {
        "details": "See {IERC721-isApprovedForAll}."
      },
      "name()": {
        "details": "See {IERC721Metadata-name}."
      },
      "ownerOf(uint256)": {
        "details": "See {IERC721-ownerOf}."
      },
      "safeTransferFrom(address,address,uint256)": {
        "details": "See {IERC721-safeTransferFrom}."
      },
      "safeTransferFrom(address,address,uint256,bytes)": {
        "details": "See {IERC721-safeTransferFrom}."
      },
      "setApprovalForAll(address,bool)": {
        "details": "See {IERC721-setApprovalForAll}."
      },
      "supportsInterface(bytes4)": {
        "details": "See {IERC165-supportsInterface}."
      },
      "symbol()": {
        "details": "See {IERC721Metadata-symbol}."
      },
      "tokenURI(uint256)": {
        "details": "See {IERC721Metadata-tokenURI}."
      },
      "transferFrom(address,address,uint256)": {
        "details": "See {IERC721-transferFrom}."
      }
    },
    "version": 1
  },
  "userdoc": {
    "kind": "user",
    "methods": {},
    "version": 1
  }
}